{
  "abi": [
    {
      "inputs": [
        {
          "internalType": "address",
          "name": "_marginEngineAddress",
          "type": "address"
        }
      ],
      "stateMutability": "nonpayable",
      "type": "constructor"
    },
    {
      "anonymous": false,
      "inputs": [
        {
          "indexed": true,
          "internalType": "address",
          "name": "previousOwner",
          "type": "address"
        },
        {
          "indexed": true,
          "internalType": "address",
          "name": "newOwner",
          "type": "address"
        }
      ],
      "name": "OwnershipTransferred",
      "type": "event"
    },
    {
      "inputs": [
        {
          "internalType": "address",
          "name": "_owner",
          "type": "address"
        },
        {
          "internalType": "int24",
          "name": "_tickLower",
          "type": "int24"
        },
        {
          "internalType": "int24",
          "name": "_tickUpper",
          "type": "int24"
        }
      ],
      "name": "getPositionMarginRequirement",
      "outputs": [
        {
          "internalType": "uint256",
          "name": "",
          "type": "uint256"
        }
      ],
      "stateMutability": "nonpayable",
      "type": "function"
    },
    {
      "inputs": [
        {
          "internalType": "address",
          "name": "_owner",
          "type": "address"
        },
        {
          "internalType": "int24",
          "name": "_tickLower",
          "type": "int24"
        },
        {
          "internalType": "int24",
          "name": "_tickUpper",
          "type": "int24"
        }
      ],
      "name": "liquidatePosition",
      "outputs": [
        {
          "internalType": "uint256",
          "name": "",
          "type": "uint256"
        }
      ],
      "stateMutability": "nonpayable",
      "type": "function"
    },
    {
      "inputs": [],
      "name": "owner",
      "outputs": [
        {
          "internalType": "address",
          "name": "",
          "type": "address"
        }
      ],
      "stateMutability": "view",
      "type": "function"
    },
    {
      "inputs": [],
      "name": "renounceOwnership",
      "outputs": [],
      "stateMutability": "nonpayable",
      "type": "function"
    },
    {
      "inputs": [
        {
          "internalType": "address",
          "name": "newOwner",
          "type": "address"
        }
      ],
      "name": "transferOwnership",
      "outputs": [],
      "stateMutability": "nonpayable",
      "type": "function"
    }
  ],
  "bytecode": "608060405234801561001057600080fd5b5060405161080238038061080283398101604081905261002f91610113565b610038336100c3565b6001600160a01b03811661009e5760405162461bcd60e51b815260206004820152602360248201527f6d617267696e20656e67696e6520616464726573732068617320746f206265206044820152621cd95d60ea1b606482015260840160405180910390fd5b600180546001600160a01b0319166001600160a01b0392909216919091179055610143565b600080546001600160a01b038381166001600160a01b0319831681178455604051919092169283917f8be0079c531659141344cd1fd0a4f28419497f9722a3daafe3b4186f6b6457e09190a35050565b60006020828403121561012557600080fd5b81516001600160a01b038116811461013c57600080fd5b9392505050565b6106b0806101526000396000f3fe608060405234801561001057600080fd5b50600436106100575760003560e01c80631656503e1461005c57806355ad2ea914610082578063715018a6146100955780638da5cb5b1461009f578063f2fde38b146100ba575b600080fd5b61006f61006a366004610549565b6100cd565b6040519081526020015b60405180910390f35b61006f610090366004610549565b61027f565b61009d6103fa565b005b6000546040516001600160a01b039091168152602001610079565b61009d6100c836600461058c565b610430565b600080546001600160a01b031633146101015760405162461bcd60e51b81526004016100f8906105ae565b60405180910390fd5b6001546001600160a01b03166101295760405162461bcd60e51b81526004016100f8906105e3565b6001546040516001600160a01b038681166024830152600286810b604484015285900b6064830152600092839291169060840160408051601f198184030181529181526020820180516001600160e01b0316630b2b281f60e11b179052516101919190610626565b6000604051808303816000865af19150503d80600081146101ce576040519150601f19603f3d011682016040523d82523d6000602084013e6101d3565b606091505b50915091508161025e5760405162461bcd60e51b815260206004820152604a60248201527f63616c6c206d617267696e456e67696e652e6c6971756964617465506f73697460448201527f696f6e285f6f776e65722c205f7469636b4c6f7765722c205f7469636b557070606482015269195c8a4819985a5b195960b21b608482015260a4016100f8565b6000818060200190518101906102749190610661565b979650505050505050565b6001546000906001600160a01b03166102aa5760405162461bcd60e51b81526004016100f8906105e3565b600180546040516001600160a01b038781166024830152600287810b604484015286900b606483015260848201939093526000928392169060a40160408051601f198184030181529181526020820180516001600160e01b031663f121610560e01b1790525161031a9190610626565b6000604051808303816000865af19150503d8060008114610357576040519150601f19603f3d011682016040523d82523d6000602084013e61035c565b606091505b50915091508161025e5760405162461bcd60e51b815260206004820152605c60248201527f63616c6c206d617267696e456e67696e652e676574506f736974696f6e4d617260448201527f67696e526571756972656d656e74285f6f776e65722c205f7469636b4c6f776560648201527f722c205f7469636b55707065722c205f69734c4d29206661696c656400000000608482015260a4016100f8565b6000546001600160a01b031633146104245760405162461bcd60e51b81526004016100f8906105ae565b61042e60006104cb565b565b6000546001600160a01b0316331461045a5760405162461bcd60e51b81526004016100f8906105ae565b6001600160a01b0381166104bf5760405162461bcd60e51b815260206004820152602660248201527f4f776e61626c653a206e6577206f776e657220697320746865207a65726f206160448201526564647265737360d01b60648201526084016100f8565b6104c8816104cb565b50565b600080546001600160a01b038381166001600160a01b0319831681178455604051919092169283917f8be0079c531659141344cd1fd0a4f28419497f9722a3daafe3b4186f6b6457e09190a35050565b80356001600160a01b038116811461053257600080fd5b919050565b8035600281900b811461053257600080fd5b60008060006060848603121561055e57600080fd5b6105678461051b565b925061057560208501610537565b915061058360408501610537565b90509250925092565b60006020828403121561059e57600080fd5b6105a78261051b565b9392505050565b6020808252818101527f4f776e61626c653a2063616c6c6572206973206e6f7420746865206f776e6572604082015260600190565b60208082526023908201527f6d617267696e20656e67696e6520616464726573732068617320746f206265206040820152621cd95d60ea1b606082015260800190565b6000825160005b81811015610647576020818601810151858301520161062d565b81811115610656576000828501525b509190910192915050565b60006020828403121561067357600080fd5b505191905056fea2646970667358221220f3ecd8436ffe0315ff3c871f7d3237baf4b3eb01cb38f84f8786a0c7c606645464736f6c63430008090033",
  "bytecodeSha1": "d5e3b0562fb8d4c343658f8a2e7c79119b005ead",
  "compiler": {
    "evm_version": "istanbul",
    "optimizer": {
      "enabled": true,
      "runs": 200
    },
    "version": "0.8.9+commit.e5eed63a"
  },
  "contractName": "LiquidationBot",
  "language": "Solidity",
  "natspec": {
    "kind": "dev",
    "methods": {
      "owner()": {
        "details": "Returns the address of the current owner."
      },
      "renounceOwnership()": {
        "details": "Leaves the contract without owner. It will not be possible to call `onlyOwner` functions anymore. Can only be called by the current owner. NOTE: Renouncing ownership will leave the contract without an owner, thereby removing any functionality that is only available to the owner."
      },
      "transferOwnership(address)": {
        "details": "Transfers ownership of the contract to a new account (`newOwner`). Can only be called by the current owner."
      }
    },
    "version": 1
  },
  "opcodes": "PUSH1 0x80 PUSH1 0x40 MSTORE CALLVALUE DUP1 ISZERO PUSH2 0x10 JUMPI PUSH1 0x0 DUP1 REVERT JUMPDEST POP PUSH1 0x4 CALLDATASIZE LT PUSH2 0x57 JUMPI PUSH1 0x0 CALLDATALOAD PUSH1 0xE0 SHR DUP1 PUSH4 0x1656503E EQ PUSH2 0x5C JUMPI DUP1 PUSH4 0x55AD2EA9 EQ PUSH2 0x82 JUMPI DUP1 PUSH4 0x715018A6 EQ PUSH2 0x95 JUMPI DUP1 PUSH4 0x8DA5CB5B EQ PUSH2 0x9F JUMPI DUP1 PUSH4 0xF2FDE38B EQ PUSH2 0xBA JUMPI JUMPDEST PUSH1 0x0 DUP1 REVERT JUMPDEST PUSH2 0x6F PUSH2 0x6A CALLDATASIZE PUSH1 0x4 PUSH2 0x549 JUMP JUMPDEST PUSH2 0xCD JUMP JUMPDEST PUSH1 0x40 MLOAD SWAP1 DUP2 MSTORE PUSH1 0x20 ADD JUMPDEST PUSH1 0x40 MLOAD DUP1 SWAP2 SUB SWAP1 RETURN JUMPDEST PUSH2 0x6F PUSH2 0x90 CALLDATASIZE PUSH1 0x4 PUSH2 0x549 JUMP JUMPDEST PUSH2 0x27F JUMP JUMPDEST PUSH2 0x9D PUSH2 0x3FA JUMP JUMPDEST STOP JUMPDEST PUSH1 0x0 SLOAD PUSH1 0x40 MLOAD PUSH1 0x1 PUSH1 0x1 PUSH1 0xA0 SHL SUB SWAP1 SWAP2 AND DUP2 MSTORE PUSH1 0x20 ADD PUSH2 0x79 JUMP JUMPDEST PUSH2 0x9D PUSH2 0xC8 CALLDATASIZE PUSH1 0x4 PUSH2 0x58C JUMP JUMPDEST PUSH2 0x430 JUMP JUMPDEST PUSH1 0x0 DUP1 SLOAD PUSH1 0x1 PUSH1 0x1 PUSH1 0xA0 SHL SUB AND CALLER EQ PUSH2 0x101 JUMPI PUSH1 0x40 MLOAD PUSH3 0x461BCD PUSH1 0xE5 SHL DUP2 MSTORE PUSH1 0x4 ADD PUSH2 0xF8 SWAP1 PUSH2 0x5AE JUMP JUMPDEST PUSH1 0x40 MLOAD DUP1 SWAP2 SUB SWAP1 REVERT JUMPDEST PUSH1 0x1 SLOAD PUSH1 0x1 PUSH1 0x1 PUSH1 0xA0 SHL SUB AND PUSH2 0x129 JUMPI PUSH1 0x40 MLOAD PUSH3 0x461BCD PUSH1 0xE5 SHL DUP2 MSTORE PUSH1 0x4 ADD PUSH2 0xF8 SWAP1 PUSH2 0x5E3 JUMP JUMPDEST PUSH1 0x1 SLOAD PUSH1 0x40 MLOAD PUSH1 0x1 PUSH1 0x1 PUSH1 0xA0 SHL SUB DUP7 DUP2 AND PUSH1 0x24 DUP4 ADD MSTORE PUSH1 0x2 DUP7 DUP2 SIGNEXTEND PUSH1 0x44 DUP5 ADD MSTORE DUP6 SWAP1 SIGNEXTEND PUSH1 0x64 DUP4 ADD MSTORE PUSH1 0x0 SWAP3 DUP4 SWAP3 SWAP2 AND SWAP1 PUSH1 0x84 ADD PUSH1 0x40 DUP1 MLOAD PUSH1 0x1F NOT DUP2 DUP5 SUB ADD DUP2 MSTORE SWAP2 DUP2 MSTORE PUSH1 0x20 DUP3 ADD DUP1 MLOAD PUSH1 0x1 PUSH1 0x1 PUSH1 0xE0 SHL SUB AND PUSH4 0xB2B281F PUSH1 0xE1 SHL OR SWAP1 MSTORE MLOAD PUSH2 0x191 SWAP2 SWAP1 PUSH2 0x626 JUMP JUMPDEST PUSH1 0x0 PUSH1 0x40 MLOAD DUP1 DUP4 SUB DUP2 PUSH1 0x0 DUP7 GAS CALL SWAP2 POP POP RETURNDATASIZE DUP1 PUSH1 0x0 DUP2 EQ PUSH2 0x1CE JUMPI PUSH1 0x40 MLOAD SWAP2 POP PUSH1 0x1F NOT PUSH1 0x3F RETURNDATASIZE ADD AND DUP3 ADD PUSH1 0x40 MSTORE RETURNDATASIZE DUP3 MSTORE RETURNDATASIZE PUSH1 0x0 PUSH1 0x20 DUP5 ADD RETURNDATACOPY PUSH2 0x1D3 JUMP JUMPDEST PUSH1 0x60 SWAP2 POP JUMPDEST POP SWAP2 POP SWAP2 POP DUP2 PUSH2 0x25E JUMPI PUSH1 0x40 MLOAD PUSH3 0x461BCD PUSH1 0xE5 SHL DUP2 MSTORE PUSH1 0x20 PUSH1 0x4 DUP3 ADD MSTORE PUSH1 0x4A PUSH1 0x24 DUP3 ADD MSTORE PUSH32 0x63616C6C206D617267696E456E67696E652E6C6971756964617465506F736974 PUSH1 0x44 DUP3 ADD MSTORE PUSH32 0x696F6E285F6F776E65722C205F7469636B4C6F7765722C205F7469636B557070 PUSH1 0x64 DUP3 ADD MSTORE PUSH10 0x195C8A4819985A5B1959 PUSH1 0xB2 SHL PUSH1 0x84 DUP3 ADD MSTORE PUSH1 0xA4 ADD PUSH2 0xF8 JUMP JUMPDEST PUSH1 0x0 DUP2 DUP1 PUSH1 0x20 ADD SWAP1 MLOAD DUP2 ADD SWAP1 PUSH2 0x274 SWAP2 SWAP1 PUSH2 0x661 JUMP JUMPDEST SWAP8 SWAP7 POP POP POP POP POP POP POP JUMP JUMPDEST PUSH1 0x1 SLOAD PUSH1 0x0 SWAP1 PUSH1 0x1 PUSH1 0x1 PUSH1 0xA0 SHL SUB AND PUSH2 0x2AA JUMPI PUSH1 0x40 MLOAD PUSH3 0x461BCD PUSH1 0xE5 SHL DUP2 MSTORE PUSH1 0x4 ADD PUSH2 0xF8 SWAP1 PUSH2 0x5E3 JUMP JUMPDEST PUSH1 0x1 DUP1 SLOAD PUSH1 0x40 MLOAD PUSH1 0x1 PUSH1 0x1 PUSH1 0xA0 SHL SUB DUP8 DUP2 AND PUSH1 0x24 DUP4 ADD MSTORE PUSH1 0x2 DUP8 DUP2 SIGNEXTEND PUSH1 0x44 DUP5 ADD MSTORE DUP7 SWAP1 SIGNEXTEND PUSH1 0x64 DUP4 ADD MSTORE PUSH1 0x84 DUP3 ADD SWAP4 SWAP1 SWAP4 MSTORE PUSH1 0x0 SWAP3 DUP4 SWAP3 AND SWAP1 PUSH1 0xA4 ADD PUSH1 0x40 DUP1 MLOAD PUSH1 0x1F NOT DUP2 DUP5 SUB ADD DUP2 MSTORE SWAP2 DUP2 MSTORE PUSH1 0x20 DUP3 ADD DUP1 MLOAD PUSH1 0x1 PUSH1 0x1 PUSH1 0xE0 SHL SUB AND PUSH4 0xF1216105 PUSH1 0xE0 SHL OR SWAP1 MSTORE MLOAD PUSH2 0x31A SWAP2 SWAP1 PUSH2 0x626 JUMP JUMPDEST PUSH1 0x0 PUSH1 0x40 MLOAD DUP1 DUP4 SUB DUP2 PUSH1 0x0 DUP7 GAS CALL SWAP2 POP POP RETURNDATASIZE DUP1 PUSH1 0x0 DUP2 EQ PUSH2 0x357 JUMPI PUSH1 0x40 MLOAD SWAP2 POP PUSH1 0x1F NOT PUSH1 0x3F RETURNDATASIZE ADD AND DUP3 ADD PUSH1 0x40 MSTORE RETURNDATASIZE DUP3 MSTORE RETURNDATASIZE PUSH1 0x0 PUSH1 0x20 DUP5 ADD RETURNDATACOPY PUSH2 0x35C JUMP JUMPDEST PUSH1 0x60 SWAP2 POP JUMPDEST POP SWAP2 POP SWAP2 POP DUP2 PUSH2 0x25E JUMPI PUSH1 0x40 MLOAD PUSH3 0x461BCD PUSH1 0xE5 SHL DUP2 MSTORE PUSH1 0x20 PUSH1 0x4 DUP3 ADD MSTORE PUSH1 0x5C PUSH1 0x24 DUP3 ADD MSTORE PUSH32 0x63616C6C206D617267696E456E67696E652E676574506F736974696F6E4D6172 PUSH1 0x44 DUP3 ADD MSTORE PUSH32 0x67696E526571756972656D656E74285F6F776E65722C205F7469636B4C6F7765 PUSH1 0x64 DUP3 ADD MSTORE PUSH32 0x722C205F7469636B55707065722C205F69734C4D29206661696C656400000000 PUSH1 0x84 DUP3 ADD MSTORE PUSH1 0xA4 ADD PUSH2 0xF8 JUMP JUMPDEST PUSH1 0x0 SLOAD PUSH1 0x1 PUSH1 0x1 PUSH1 0xA0 SHL SUB AND CALLER EQ PUSH2 0x424 JUMPI PUSH1 0x40 MLOAD PUSH3 0x461BCD PUSH1 0xE5 SHL DUP2 MSTORE PUSH1 0x4 ADD PUSH2 0xF8 SWAP1 PUSH2 0x5AE JUMP JUMPDEST PUSH2 0x42E PUSH1 0x0 PUSH2 0x4CB JUMP JUMPDEST JUMP JUMPDEST PUSH1 0x0 SLOAD PUSH1 0x1 PUSH1 0x1 PUSH1 0xA0 SHL SUB AND CALLER EQ PUSH2 0x45A JUMPI PUSH1 0x40 MLOAD PUSH3 0x461BCD PUSH1 0xE5 SHL DUP2 MSTORE PUSH1 0x4 ADD PUSH2 0xF8 SWAP1 PUSH2 0x5AE JUMP JUMPDEST PUSH1 0x1 PUSH1 0x1 PUSH1 0xA0 SHL SUB DUP2 AND PUSH2 0x4BF JUMPI PUSH1 0x40 MLOAD PUSH3 0x461BCD PUSH1 0xE5 SHL DUP2 MSTORE PUSH1 0x20 PUSH1 0x4 DUP3 ADD MSTORE PUSH1 0x26 PUSH1 0x24 DUP3 ADD MSTORE PUSH32 0x4F776E61626C653A206E6577206F776E657220697320746865207A65726F2061 PUSH1 0x44 DUP3 ADD MSTORE PUSH6 0x646472657373 PUSH1 0xD0 SHL PUSH1 0x64 DUP3 ADD MSTORE PUSH1 0x84 ADD PUSH2 0xF8 JUMP JUMPDEST PUSH2 0x4C8 DUP2 PUSH2 0x4CB JUMP JUMPDEST POP JUMP JUMPDEST PUSH1 0x0 DUP1 SLOAD PUSH1 0x1 PUSH1 0x1 PUSH1 0xA0 SHL SUB DUP4 DUP2 AND PUSH1 0x1 PUSH1 0x1 PUSH1 0xA0 SHL SUB NOT DUP4 AND DUP2 OR DUP5 SSTORE PUSH1 0x40 MLOAD SWAP2 SWAP1 SWAP3 AND SWAP3 DUP4 SWAP2 PUSH32 0x8BE0079C531659141344CD1FD0A4F28419497F9722A3DAAFE3B4186F6B6457E0 SWAP2 SWAP1 LOG3 POP POP JUMP JUMPDEST DUP1 CALLDATALOAD PUSH1 0x1 PUSH1 0x1 PUSH1 0xA0 SHL SUB DUP2 AND DUP2 EQ PUSH2 0x532 JUMPI PUSH1 0x0 DUP1 REVERT JUMPDEST SWAP2 SWAP1 POP JUMP JUMPDEST DUP1 CALLDATALOAD PUSH1 0x2 DUP2 SWAP1 SIGNEXTEND DUP2 EQ PUSH2 0x532 JUMPI PUSH1 0x0 DUP1 REVERT JUMPDEST PUSH1 0x0 DUP1 PUSH1 0x0 PUSH1 0x60 DUP5 DUP7 SUB SLT ISZERO PUSH2 0x55E JUMPI PUSH1 0x0 DUP1 REVERT JUMPDEST PUSH2 0x567 DUP5 PUSH2 0x51B JUMP JUMPDEST SWAP3 POP PUSH2 0x575 PUSH1 0x20 DUP6 ADD PUSH2 0x537 JUMP JUMPDEST SWAP2 POP PUSH2 0x583 PUSH1 0x40 DUP6 ADD PUSH2 0x537 JUMP JUMPDEST SWAP1 POP SWAP3 POP SWAP3 POP SWAP3 JUMP JUMPDEST PUSH1 0x0 PUSH1 0x20 DUP3 DUP5 SUB SLT ISZERO PUSH2 0x59E JUMPI PUSH1 0x0 DUP1 REVERT JUMPDEST PUSH2 0x5A7 DUP3 PUSH2 0x51B JUMP JUMPDEST SWAP4 SWAP3 POP POP POP JUMP JUMPDEST PUSH1 0x20 DUP1 DUP3 MSTORE DUP2 DUP2 ADD MSTORE PUSH32 0x4F776E61626C653A2063616C6C6572206973206E6F7420746865206F776E6572 PUSH1 0x40 DUP3 ADD MSTORE PUSH1 0x60 ADD SWAP1 JUMP JUMPDEST PUSH1 0x20 DUP1 DUP3 MSTORE PUSH1 0x23 SWAP1 DUP3 ADD MSTORE PUSH32 0x6D617267696E20656E67696E6520616464726573732068617320746F20626520 PUSH1 0x40 DUP3 ADD MSTORE PUSH3 0x1CD95D PUSH1 0xEA SHL PUSH1 0x60 DUP3 ADD MSTORE PUSH1 0x80 ADD SWAP1 JUMP JUMPDEST PUSH1 0x0 DUP3 MLOAD PUSH1 0x0 JUMPDEST DUP2 DUP2 LT ISZERO PUSH2 0x647 JUMPI PUSH1 0x20 DUP2 DUP7 ADD DUP2 ADD MLOAD DUP6 DUP4 ADD MSTORE ADD PUSH2 0x62D JUMP JUMPDEST DUP2 DUP2 GT ISZERO PUSH2 0x656 JUMPI PUSH1 0x0 DUP3 DUP6 ADD MSTORE JUMPDEST POP SWAP2 SWAP1 SWAP2 ADD SWAP3 SWAP2 POP POP JUMP JUMPDEST PUSH1 0x0 PUSH1 0x20 DUP3 DUP5 SUB SLT ISZERO PUSH2 0x673 JUMPI PUSH1 0x0 DUP1 REVERT JUMPDEST POP MLOAD SWAP2 SWAP1 POP JUMP INVALID LOG2 PUSH5 0x6970667358 0x22 SLT KECCAK256 RETURN 0xEC 0xD8 NUMBER PUSH16 0xFE0315FF3C871F7D3237BAF4B3EB01CB CODESIZE 0xF8 0x4F DUP8 DUP7 LOG0 0xC7 0xC6 MOD PUSH5 0x5464736F6C PUSH4 0x43000809 STOP CALLER ",
  "sha1": "78768b49e07e216af395d1310f1d93fd0bb8ac91",
  "source": "// SPDX-License-Identifier: MIT\n\npragma solidity =0.8.9;\n\nimport \"../interfaces/ILiquidationBot.sol\";\nimport \"OpenZeppelin/openzeppelin-contracts@4.5.0/contracts/access/Ownable.sol\";\n\n\ncontract LiquidationBot is ILiquidationBot, Ownable {\n    address private marginEngineAddress;\n\n    constructor(address _marginEngineAddress) {\n        require(_marginEngineAddress != address(0), \"margin engine address has to be set\");\n        marginEngineAddress = _marginEngineAddress;\n    }\n\n    function liquidatePosition(\n        address _owner,\n        int24 _tickLower,\n        int24 _tickUpper\n    ) external onlyOwner returns (uint256) {\n        require(marginEngineAddress != address(0), \"margin engine address has to be set\");\n        // make a call to marginEngine.liquidatePosition(_owner, _tickLower, _tickUpper);\n        (bool success, bytes memory returnData) = marginEngineAddress.call(abi.encodeWithSignature(\"liquidatePosition(address,int24,int24)\", _owner, _tickLower, _tickUpper));\n        \n        require(success, \"call marginEngine.liquidatePosition(_owner, _tickLower, _tickUpper) failed\");\n        (uint liquidationReward) = abi.decode(returnData, (uint));\n\n        return liquidationReward;\n    }\n\n    function getPositionMarginRequirement(\n        address _owner,\n        int24 _tickLower,\n        int24 _tickUpper\n    ) external returns (uint256){\n        require(marginEngineAddress != address(0), \"margin engine address has to be set\");\n        // make a call to marginEngine.liquidatePosition(_owner, _tickLower, _tickUpper);\n        (bool success, bytes memory returnData) = marginEngineAddress.call(abi.encodeWithSignature(\"getPositionMarginRequirement(address,int24,int24,bool)\", _owner, _tickLower, _tickUpper, true)); // make static call and catch the error\n        \n        require(success, \"call marginEngine.getPositionMarginRequirement(_owner, _tickLower, _tickUpper, _isLM) failed\");\n        (uint marginRequirement) = abi.decode(returnData, (uint256));\n\n        return marginRequirement;\n    }\n\n}",
  "sourcePath": "contracts/LiquidationBot.sol",
  "type": "contract"
}